:020000040800F2
:10000000442B0020A12E0008F92E0008F92E00082C
:10001000F92E0008F92E0008F92E00080000000053
:10002000000000000000000000000000DD5D00088E
:10003000F92E000800000000B15E0008ED5E000827
:10004000F92E0008F56C0008F92E0008F92E0008BA
:10005000F92E0008F92E0008F92E0008F92E0008E4
:10006000F92E0008F92E0008F92E0008F92E0008D4
:10007000F92E0008F92E0008F92E0008F92E0008C4
:10008000F92E0008F92E0008F92E0008F92E0008B4
:10009000F92E0008F92E0008F92E0008F92E0008A4
:1000A000F92E0008F92E0008F92E0008F92E000894
:1000B000F92E0008F92E0008F92E0008F92E000884
:1000C000F92E0008F92E0008F92E0008F92E000874
:1000D000F92E0008ED1C0008F92E0008F92E000882
:1000E000F92E0008F92E0008F92E0008F92E000854
:1000F000F92E0008F92E0008F92E0008F92E000844
:10010000F92E0008F92E0008F92E0008F92E000833
:10011000F92E0008F92E0008F92E0008F92E000823
:10012000F92E0008F92E0008F92E0008F92E000813
:10013000F92E0008F92E0008F92E0008F92E000803
:10014000F92E0008F92E0008F92E0008F92E0008F3
:10015000F92E0008F92E0008F92E0008F92E0008E3
:10016000F92E0008F92E0008F92E0008F92E0008D3
:10017000F92E0008F92E0008F92E0008F92E0008C3
:10018000F92E0008F92E000890B58DB000AF786008
:10019000002387F82F30002387F82E30002387F8BC
:1001A0002D30002387F82A30002387F82C300023D5
:1001B00087F82B3007F1080300221A60043300226D
:1001C0001A60043300221A60043300221A600433D8
:1001D00000221A60043300221A60043300221A60DD
:1001E000043300221A6004337B681B783A2B00D05A
:1001F00064E37B685B7887F82A3097F82A30962B7F
:1002000000D95BE3002387F82F3010E097F82F2008
:10021000904913465B001344DB000B4403F5F8736D
:1002200000229A7097F82F30013387F82F3097F813
:100230002F30132BEAD905F013FE022387F82F3055
:10024000FCE097F82F307A6813441B785B2B02D0C0
:100250005D2B04D043E0012387F82D30E9E097F8C7
:100260002C207C4913465B001344DB000B4403F550
:10027000F0739B88012B18D197F82B3007F13002CF
:100280001344002203F8282C97F82C2013465B0017
:100290001344DB0003F5F0736E4A1A4407F10803B8
:1002A0001046194600F010FB12E097F82C20134678
:1002B0005B001344DB0003F5F073664A991807F1FD
:1002C000080297F82B30084611461A4600F0E4FD64
:1002D000002387F82D30002387F82B30A9E097F80A
:1002E0002D30012B40F0A58097F82F30013B7A6824
:1002F00013441B785B2B40F08B8097F82F307A6883
:1003000013441B782A2B6AD1002387F82E3059E03A
:1003100097F82E2097F82F30013379680B441B781B
:100320009BB203F00F039BB243F420639BB298B2DD
:10033000484913465B001344DB000B4403F5F47398
:1003400002461A8097F82E20424913465B00134458
:10035000DB000B4403F5F0731B88132B2DD897F8A3
:100360002E203C4913465B001344DB000B4403F58D
:10037000F0735B88184697F82E20364913465B00C9
:100380001344DB000B4403F5F0731B881C4697F8FD
:100390002E20304913465B001344DB000B4403F569
:1003A000F47319882B4A03469B0003441B01234422
:1003B00012335B0013440A465A8097F82E300133FB
:1003C00087F82E3097F82E30132BA1D997F82F30BD
:1003D000023387F82F30002387F82D3029E097F873
:1003E0002F307A6813441B7887F82C3097F82C301C
:1003F000132B00D91DE097F82C20164913465B00FB
:100400001344DB000B4403F5F87301229A7010E0EB
:1004100097F82B3097F82F2079680A44127807F163
:1004200030010B4403F8282C97F82B30013387F860
:100430002B3097F82F30013387F82F3097F82F2083
:1004400097F82A309A42FFF4FCAE002387F82F3049
:100450002CE200BF941D002097F82F20D9491346A5
:100460005B001344DB000B4403F5F8739B78002B0F
:1004700040F0178297F82F20D24913465B001344AF
:10048000DB000B4403F5F0731B88132B00F2098289
:1004900097F82F20CB4913465B001344DB000B4435
:1004A00003F5F0735B88184697F82F20C54913466B
:1004B0005B001344DB000B4403F5F0731B881C4600
:1004C00097F82F20BF4913465B001344DB000B4411
:1004D00003F5F473D988BB4A03469B0003441B0110
:1004E00023445B0013440A465A8097F82F20B549ED
:1004F00013465B001344DB000B4403F5F0735B8889
:10050000184697F82F20AF4913465B001344DB00D1
:100510000B4403F5F0731B881C4697F82F20A9495C
:1005200013465B001344DB000B4403F5F873198892
:10053000A44A03469B0003441B01234406335B008B
:1005400013440A465A8097F82F209E4913465B00B1
:100550001344DB000B4403F5F0735B88184697F8EF
:100560002F20984913465B001344DB000B4403F52E
:10057000F0731B881C4697F82F20924913465B00A6
:100580001344DB000B4403F5F47399888D4A03464A
:100590009B0003441B0123440C335B0013440A46B5
:1005A0005A8097F82F20874913465B001344DB00DD
:1005B0000B4403F5F0735B88184697F82F208149A8
:1005C00013465B001344DB000B4403F5F0731B88F8
:1005D0001C4697F82F207B4913465B001344DB0031
:1005E0000B4403F5F4731988764A03469B000344D1
:1005F0001B01234412335B0013440A465A8097F8C8
:100600002F20704913465B001344DB000B4403F5B5
:10061000F0735B88184697F82F206A4913465B00F1
:100620001344DB000B4403F5F0731B881C4697F85A
:100630002F20644913465B001344DB000B4403F591
:10064000F47359885F4A03469B0003441B0123440B
:1006500018335B0013440A465A8097F82F205949F3
:1006600013465B001344DB000B4403F5F0735B8817
:10067000184697F82F20534913465B001344DB00BC
:100680000B4403F5F0731B8819464E4A03469B0042
:1006900003441B010B441E335B0013444FF4807270
:1006A0005A8097F82F20474913465B001344DB001C
:1006B0000B4403F5F0735B88184697F82F204149E7
:1006C00013465B001344DB000B4403F5F0731B88F7
:1006D00019463C4A03469B0003441B010B44243348
:1006E0005B0013444FF400725A8097F82F2035496D
:1006F00013465B001344DB000B4403F5F0735B8887
:10070000184697F82F202F4913465B001344DB004F
:100710000B4403F5F0731B8819462A4A03469B00D5
:1007200003441B010B442A335B0013444FF4407213
:100730005A8097F82F20234913465B001344DB00AF
:100740000B4403F5F0735B88184697F82F201D497A
:1007500013465B001344DB000B4403F5F0731B8866
:100760001946184A03469B0003441B010B443033CF
:100770005B0013444FF480625A8097F82F20114990
:1007800013465B001344DB000B4403F5F0735B88F6
:10079000184697F82F200B4913465B001344DB00E3
:1007A0000B4403F5F0731B881946064A03469B0069
:1007B00003441B010B4436335B0013444FF4A06227
:1007C00002E000BF941D00205A8097F82F203D4979
:1007D00013465B001344DB000B4403F5F0735B88A6
:1007E000184697F82F20374913465B001344DB0067
:1007F0000B4403F5F0731B881946324A03469B00ED
:1008000003441B010B443C335B0013444FF4C062B0
:100810005A8097F82F202B4913465B001344DB00C6
:100820000B4403F5F0735B88184697F82F20254991
:1008300013465B001344DB000B4403F5F0731B8885
:100840001946204A03469B0003441B010B444233D4
:100850005B0013444FF4E0625A8097F82F20194947
:1008600013465B001344DB000B4403F5F0735B8815
:10087000184697F82F20134913465B001344DB00FA
:100880000B4403F5F0731B8819460E4A03469B0080
:1008900003441B010B4448335B0013444FF40062D4
:1008A0005A8097F82F30013387F82F3097F82F3080
:1008B000132B7FF6D1AD05F0E5FA00BF3437BD4606
:1008C00090BD00BF941D0020F0B585B000AF7860EA
:1008D00039600023FB730023BB7300237B73002369
:1008E0003B737B681B88142B01D90023CCE238684A
:1008F00006F006FB03463B737B685B8819467B6802
:100900001B881C467B68D889794A0B469B000B44A0
:100910001B0123445B00134402465A807B685B88BA
:1009200019467B681B881C467B68188A704A0B46F0
:100930009B000B441B01234406335B001344024617
:100940005A807B685B8819467B681B881C467B68DD
:100950009889674A0B469B000B441B0123440C33C8
:100960005B00134402465A807B685B8819467B68AB
:100970001B881C467B6818895D4A0B469B000B440C
:100980001B01234412335B00134402465A807B68E8
:100990005B8819467B681B881C467B685889544ACB
:1009A0000B469B000B441B01234418335B0013448C
:1009B00002465A807B685B8819467B681B8818460C
:1009C0004B4A0B469B000B441B0103441E335B0048
:1009D00013444FF480725A807B685B8819467B68A9
:1009E0001B881846424A0B469B000B441B010344DC
:1009F00024335B0013444FF400725A807B685B8899
:100A000019467B681B881846394A0B469B000B44E5
:100A10001B0103442A335B0013444FF440725A8095
:100A20007B685B8819467B681B881846304A0B46F2
:100A30009B000B441B01034430335B0013444FF411
:100A400080625A807B685B8819467B681B881846E1
:100A5000274A0B469B000B441B01034436335B00C3
:100A600013444FF4A0625A807B685B8819467B6808
:100A70001B8818461E4A0B469B000B441B0103446F
:100A80003C335B0013444FF4C0625A807B685B8840
:100A900019467B681B881846154A0B469B000B4479
:100AA0001B01034442335B0013444FF4E0625A805D
:100AB0007B685B8819467B681B8818460C4A0B4686
:100AC0009B000B441B01034448335B0013444FF469
:100AD00000625A807B7B05337B7397F90C300A2BBD
:100AE00001DD0A233B733B7B013BDBB2FB73C5E1BA
:100AF000941D002097F90F303A6813441B782F2B70
:100B00007CD997F90F303A6813441B78392B75D884
:100B100097F90F303A6813441B78303B904A1344DE
:100B2000DB7FFB72FB7A23F06003FB7297F90F30D7
:100B30003A6813441B78303B894A1344DB7F5B01DE
:100B4000DBB203F06003DAB2FB7A1343DBB2FB7271
:100B5000FB7A23F00303FB7297F90F303A681344D2
:100B60001B78303B7E4A1344DB7F5B09DBB2DBB290
:100B700003F00303DAB2FB7A1343DBB2FB727B6848
:100B80005B881C46797B7B681B881E467B685B887C
:100B90001D467B7B7A681288964672481A46520038
:100BA0001A4453001A462B469B002B441B01134446
:100BB00073445B0003445B889AB2FB7A98B27B7BF8
:100BC000043B9BB21B029BB29BB203439BB21343F9
:100BD0009BB29DB263480A4652000A4453001A462B
:100BE00023469B0023441B01134433445B0003440E
:100BF0002A465A807B7B01337B733AE197F90F30A9
:100C00003A6813441B782E2B40F0A78097F90F20E9
:100C100097F90C30013B9A426EDA97F90F300133A5
:100C20003A6813441B782E2B35D17B685B881C46B1
:100C30007B7B591C7B681B881E467B685B881D4636
:100C40007B7B01337A681288964646481A465200E2
:100C50001A4453001A462B469B002B441B01134495
:100C600073445B0003445B8843F080039DB23D48BE
:100C70000A4652000A4453001A4623469B00234466
:100C80001B01134433445B0003442A465A807B7B98
:100C900001337B73EDE07B685B881C46797B7B6866
:100CA0001B881E467B685B881D467B7B7A681288A2
:100CB00096462C481A4652001A4453001A462B46B0
:100CC0009B002B441B01134473445B0003445B886B
:100CD00043F080039DB223480A4652000A44530061
:100CE0001A4623469B0023441B01134433445B00F4
:100CF00003442A465A80BCE07B685B881C46797BAB
:100D00007B681B881E467B685B881D467B7B7A68F8
:100D10001288964613481A4652001A4453001A463F
:100D20002B469B002B441B01134473445B0003447C
:100D30005B8843F080039DB20A480A4652000A4489
:100D400053001A4623469B0023441B01134433449B
:100D50005B0003442A465A808BE00A23BB737DE084
:100D6000C46F0008941D002097F90F303A681344AF
:100D70001A7897F90E304649CB5C9A4269D197F9B7
:100D80000E30434A1344DB7FBB72BB7A23F060030F
:100D9000BB7297F90E303E4A1344DB7F5B01DBB236
:100DA00003F06003DAB2BB7A1343DBB2BB72BB7AE7
:100DB00023F00303BB7297F90E30354A1344DB7FEF
:100DC0005B09DBB2DBB203F00303DAB2BB7A134395
:100DD000DBB2BB727B685B881C46797B7B681B88B7
:100DE0001E467B685B881D467B7B7A681288964628
:100DF00028481A4652001A4453001A462B469B00B4
:100E00002B441B01134473445B0003445B889AB278
:100E1000BB7A98B27B7B043B9BB21B029BB29BB21A
:100E200003439BB213439BB29DB21A480A46520039
:100E30000A4453001A4623469B0023441B011344D3
:100E400033445B0003442A465A807B7B01337B7327
:100E500008E0BB7BDBB20133DBB2BB7397F90E302A
:100E60001E2B81DD7A7B7B68DB8805339A4200DDAF
:100E700009E0FB7BDBB2013BDBB2FB7397F90F3080
:100E8000002BBFF637AE7B7B18461437BD46F0BD4E
:100E9000C46F0008941D002080B487B000AFF860D4
:100EA000B9601346FB710023FB75FB681B88142B8C
:100EB00000D958E0BB681A78FB681A75BB685A7885
:100EC000FB685A75BB689A78FB689A75BB68DA78D4
:100ED000FB68DA75FB79042B00D044E0FB685B7D8E
:100EE0001F2B06D9FB685B7DFF2B02D0FB681F22FE
:100EF0005A75FB689B7D1F2B06D9FB689B7DFF2BDA
:100F000002D0FB681F229A75FB68DB7D1F2B06D978
:100F1000FB68DB7DFF2B02D0FB681F22DA75FB68C4
:100F20001B7D022B02D9FB6802221A75FB681B7D10
:100F3000012B0AD0022B0FD0002B14D1FB6800220A
:100F4000DA74FB6800221A750DE0FB680122DA747E
:100F5000FB6800221A7506E0FB680022DA74FB6861
:100F600001221A7500BF1C37BD465DF8047B70472F
:100F7000F0B585B000AF78600B46FB700023FB73C3
:100F80007B685B8819467B681B881C467B68D88910
:100F9000A14A0B469B000B441B0123445B001344F6
:100FA00002465A807B685B8819467B681B881C4612
:100FB0007B68188A984A0B469B000B441B0123440C
:100FC00006335B00134402465A807B685B881946EF
:100FD0007B681B881C467B6898898F4A0B469B0060
:100FE0000B441B0123440C335B00134402465A801C
:100FF0007B685B8819467B681B881C467B68188960
:10100000854A0B469B000B441B01234412335B00B3
:10101000134402465A807B685B8819467B681B88AC
:101020001C467B6858897C4A0B469B000B441B017D
:10103000234418335B00134402465A807B685B8864
:1010400019467B681B881846734A0B469B000B4465
:101050001B0103441E335B0013444FF480725A801B
:101060007B685B8819467B681B8818466A4A0B4672
:101070009B000B441B01034424335B0013444FF4D7
:1010800000725A807B685B8819467B681B8818460B
:10109000614A0B469B000B441B0103442A335B004F
:1010A00013444FF440725A807B685B8819467B6812
:1010B0001B881846584A0B469B000B441B010344EF
:1010C00030335B0013444FF480625A807B685B8846
:1010D00019467B681B8818464F4A0B469B000B44F9
:1010E0001B01034436335B0013444FF4A0625A8063
:1010F0007B685B8819467B681B881846464A0B4606
:101100009B000B441B0103443C335B0013444FF42E
:10111000C0625A807B685B8819467B681B881846CA
:101120003D4A0B469B000B441B01034442335B00CA
:1011300013444FF4E0625A807B685B8819467B68F1
:101140001B881846344A0B469B000B441B01034482
:1011500048335B0013444FF400625A80FB7803F07D
:101160000103DAB27B681B7DDBB25340DBB2FB705C
:101170007B689B7D1F2B00F29E80FB78002B4FD15C
:101180007B685B881C467B689B7D9B08DBB2591D96
:101190007B681B881E467B685B881D467B689B7D41
:1011A0009B08DBB205337A68128896461A481A46BD
:1011B00052001A4453001A462B469B002B441B0135
:1011C000134473445B0003445B8898B27B689B7D47
:1011D0009B08DBB201331B029DB27B689B7D03F051
:1011E00003030E4AD35C9BB22A4613439BB20246CA
:1011F00013439BB29DB208480A4652000A4453006A
:101200001A4623469B0023441B01134433445B00CE
:1012100003442A465A804EE0941D002004700008C2
:101220007B685B881C467B689B7D9B08DBB2591DF5
:101230007B681B881E467B685B881D467B689B7DA0
:101240009B08DBB205337A681288964699481A469D
:1012500052001A4453001A462B469B002B441B0194
:10126000134473445B0003445B8898B27B689B7DA6
:101270009B08DBB201331B029DB27B689B7D03F0B0
:1012800003038D4AD35C9BB22A4613439BB20246AA
:1012900013439BB29DB287480A4652000A4453004A
:1012A0001A4623469B0023441B01134433445B002E
:1012B00003442A465A807B68DB7D1F2B00F29A800C
:1012C000FB78002B4BD17B685B881C467B68DB7D01
:1012D0009B08DBB2591D7B681B881E467B685B88B8
:1012E0001D467B68DB7D9B08DBB205337A6812887C
:1012F000964670481A4652001A4453001A462B4626
:101300009B002B441B01134473445B0003445B8824
:1013100098B27B68DB7D9B08DBB201331B029DB278
:101320007B68DB7D03F00303644AD35C9BB22A46EF
:1013300013439BB2024613439BB29DB25D480A46DB
:1013400052000A4453001A4623469B0023441B01C3
:10135000134433445B0003442A465A804AE07B68C6
:101360005B881C467B68DB7D9B08DBB2591D7B6874
:101370001B881E467B685B881D467B68DB7D9B085F
:10138000DBB205337A68128896464A481A465200FC
:101390001A4453001A462B469B002B441B0113444E
:1013A00073445B0003445B8898B27B68DB7D9B08D9
:1013B000DBB201331B029DB27B68DB7D03F00303CC
:1013C0003D4AD35C9BB22A4613439BB20246134369
:1013D0009BB29DB237480A4652000A4453001A464F
:1013E00023469B0023441B01134433445B00034406
:1013F0002A465A807B685B7DFF2B00D1BBE000232F
:10140000FB73B1E0FB78002B5AD17B689B7DFA7BA4
:101410009A4200F0A6807B68DB7DFA7B9A4200F05E
:10142000A0807B685B881C46FB7B9B08DBB2591D58
:101430007B681B881E467B685B881D46FB7B9B0880
:10144000DBB205337A68128896461A481A4652006B
:101450001A4453001A462B469B002B441B0113448D
:1014600073445B0003445B8898B2FB7B9B08DBB250
:1014700001331B029DB2FB7B03F003030E4AD35CD6
:101480009BB22A4613439BB2024613439BB29DB2C2
:1014900008480A4652000A4453001A4623469B0055
:1014A00023441B01134433445B0003442A465A80FF
:1014B00057E000BF941D0020087000080470000869
:1014C0007B689B7DFA7B9A424BD07B68DB7DFA7B05
:1014D0009A4246D07B685B881C46FB7B9B08DBB24C
:1014E000591D7B681B881E467B685B881D46FB7BFD
:1014F0009B08DBB205337A68128896461F481A4665
:1015000052001A4453001A462B469B002B441B01E1
:10151000134473445B0003445B8898B2FB7B9B08D5
:10152000DBB201331B029DB2FB7B03F00303144AC1
:10153000D35C9BB22A4613439BB2024613439BB231
:101540009DB20E480A4652000A4453001A462346EA
:101550009B0023441B01134433445B0003442A468D
:101560005A80FB7B0133FB737B685B7DFA7B9A427D
:101570007FF648AF00BF1437BD46F0BD941D002074
:101580000470000880B586B004AF0220012101F08C
:1015900095FE0420012101F091FE40233B600023D1
:1015A0007B7101233B710023BB710023FB713B4620
:1015B0001148194603F00AFC0F484021002203F0AD
:1015C000ADFC012300930D4B0193002302930023F4
:1015D00003930B480B494022002302F021FD074BE7
:1015E0001B68184602F05EFE074B012283F82C2090
:1015F0000837BD4680BD00BF00080240741D0020B2
:101600000D16000810700008DC22002080B582B0A2
:1016100000AF7860594B93F8C033012B40F0A8809D
:10162000564B93F8C133072B00F29E8001A252F86B
:1016300023F000BF551600087B1600089D16000811
:10164000BF160008E1160008031700082517000858
:10165000471700084A484021012203F05FFC4FF47D
:10166000FA7002F0F7FD46484021002203F056FCD4
:101670004FF4FA7002F0EEFD7AE041484021012279
:1016800003F04CFC642002F0E5FD3D4840210022BF
:1016900003F044FCC82002F0DDFD69E03848402139
:1016A000012203F03BFC642002F0D4FD34484021C9
:1016B000002203F033FCC82002F0CCFD58E0304893
:1016C0004021012203F02AFC642002F0C3FD2C48D3
:1016D0004021002203F022FCC82002F0BBFD47E0BD
:1016E00027484021012203F019FC642002F0B2FDDA
:1016F00023484021002203F011FCC82002F0AAFD7B
:1017000036E01F484021012203F008FC642002F06B
:10171000A1FD1B484021002203F000FCC82002F07C
:1017200099FD25E016484021012203F0F7FB6420D3
:1017300002F090FD12484021002203F0EFFBC82088
:1017400002F088FD14E00E484021012203F0E6FB80
:10175000642002F07FFD0A484021002203F0DEFBF6
:10176000C82002F077FD03E04FF4FA7002F072FD3A
:10177000044B9B6A0133034A93624BE7941D00209C
:1017800000080240DC22002080B582B000AF034692
:101790000A46FB711346BB71BB7903F00103002BB2
:1017A00012D01A4B93F8C033002B08D1184B1B688A
:1017B000184602F0EFFD154B012283F8C023154BAC
:1017C000002283F82C2016E0104B93F8C033012B35
:1017D00008D10F4B1B68184602F064FD0B4B00222A
:1017E00083F8C0230B4B012283F82C200A484021A8
:1017F000002203F093FBFB7903F00703DAB2034BFB
:1018000083F8C1230837BD4680BD00BF941D00206A
:10181000741D0020DC2200200008024080B582B048
:1018200000AF78607B682B4A934208D110200121D9
:1018300001F0BCFD1020002101F0B8FD47E07B68FD
:10184000254A93420AD14FF40030012101F090FD66
:101850004FF40030002101F08BFD38E07B681F4A17
:1018600093420AD14FF48020012101F081FD4FF411
:101870008020002101F07CFD29E07B68184A93421A
:101880000AD14FF40020012101F072FD4FF4002035
:10189000002101F06DFD1AE07B68124A93420AD1E3
:1018A0004FF48010012101F063FD4FF480100021FE
:1018B00001F05EFD0BE07B680B4A934207D12020CC
:1018C000012101F073FD2020002101F06FFD083798
:1018D000BD4680BD0010014000440040004800406B
:1018E000004C0040005000400014014080B58AB018
:1018F00000AF7860396000237B6200233B620023E5
:10190000FB610023BB617B681B8A9BB27B627B6AA5
:1019100023F440537B623B68DB881A467B6A13439F
:101920007B627B6A9AB27B681A827B689B899BB2D6
:101930007B627B6A23F4B05323F00C037B623B6829
:101940009A883B681B8913439AB23B685B891343AF
:101950009BB21A467B6A13437B627B6A9AB27B68AE
:101960009A817B689B8A9BB27B627B6A23F440737B
:101970007B623B689B891A467B6A13437B627B6A66
:101980009AB27B689A8207F10803184601F0ECFBD3
:101990007B68314A934203D07B68304A934202D13C
:1019A0007B693B6201E03B693B627B689B899BB240
:1019B0009BB21BB2002B0CDA3A6A13469B0013440D
:1019C0009A001A443B681B685B00B2FBF3F3FB61AF
:1019D0000BE03A6A13469B0013449A001A443B6892
:1019E0001B689B00B2FBF3F3FB61FB691C4AA2FB83
:1019F00003235B091B017B627B6A1B09642202FBD8
:101A000003F3FA69D31ABB617B689B899BB29BB2D3
:101A10001BB2002B0CDABB69DB003233104AA2FB8D
:101A200003235B0903F007037A6A13437B620BE02D
:101A3000BB691B0132330A4AA2FB03235B0903F093
:101A40000F037A6A13437B627B6A9AB27B681A81BE
:101A50002837BD4680BD00BF001001400014014082
:101A60001F85EB5180B483B000AF78600B46FB70EC
:101A7000FB78002B08D07B689B899BB243F4005312
:101A80009AB27B689A8107E07B689B899BB223F4BA
:101A900000539AB27B689A810C37BD465DF8047B8F
:101AA000704700BF80B483B000AF78607B689B88CC
:101AB0009BB2C3F308039BB218460C37BD465DF8D2
:101AC000047B704780B487B000AF78600B467B80A2
:101AD00013467B7000233B610023FB600023BB6047
:101AE00000237B617B687B617B88DBB25B09DBB2B7
:101AF0003B617B8803F01F03FB60FB68012202FA55
:101B000003F3BB603B69012B03D17B690C337B6121
:101B100009E03B69022B03D17B6910337B6102E052
:101B20007B6914337B617B78002B06D07B697A69F3
:101B30001168BA680A431A6006E07B697A6911681D
:101B4000BA68D2430A401A601C37BD465DF8047B70
:101B5000704700BF80B483B000AF78600B467B80D5
:101B60007B88DB439AB27B681A800C37BD465DF8F0
:101B7000047B704780B487B000AF78600B467B80F1
:101B80000023FB6000237B610023BB600023FB7408
:101B90007B88DBB25B09DBB2BB607B8803F01F0391
:101BA0007B617B69012202FA03F37B61BB68012B35
:101BB00007D17B689B899BB21A467B6913407B6186
:101BC00011E0BB68022B07D17B681B8A9BB21A46C7
:101BD0007B6913407B6106E07B689B8A9BB21A4657
:101BE0007B6913407B617B881B0A9BB2FB60FB68AF
:101BF000012202FA03F3FB607B681B889BB21A4642
:101C0000FB681340FB607B69002B05D0FB68002B51
:101C100002D00123FB7401E00023FB74FB7C184617
:101C20001C37BD465DF8047B704700BF80B485B0AB
:101C300000AF78600B467B800023FB810023BB81D3
:101C40007B881B0AFB81FB89012202FA03F3BB811B
:101C5000BB89DB439AB27B681A801437BD465DF8B6
:101C6000047B704780B485B000AF78600023FB60D0
:101C7000094B1B68FB60FB6823F0E003FB60FA681C
:101C80007B681343FB60044AFB6813601437BD464E
:101C90005DF8047B704700BF0070004080B483B0E3
:101CA00000AF0346FB71044AFB7913600C37BD4655
:101CB0005DF8047B704700BF10000E4280B483B013
:101CC00000AF0346FB71084997F907305B09FA79C1
:101CD00002F01F02012000FA02F241F823200C3723
:101CE000BD465DF8047B704700E100E080B500AFC1
:101CF000964B00221A60964840F22551FFF73AFFB2
:101D00000346002B00F0FA80914840F22551FFF77E
:101D10008DFF8F48FFF7C6FE0346DAB28D4B1A706F
:101D20008D4B1B78002B02D0012B3DD0E6E0894B78
:101D30001B783A2B02D1894B00221A70874B1B78F3
:101D40001946844B1A78864B0B4483F88624834BC0
:101D50001B780133DAB2814B1A70804B1B78012B50
:101D600021D97F4B93F887341A467C4B1B78023B72
:101D70009A4218D1764840F225510022FFF7A2FE80
:101D8000784B1B6818460021704A002303F0D4FDED
:101D90006E4B1B68002B06D06C4B1B68002B02D0CF
:101DA00004F052F8AAE0A9E06A4B1B78292B16D060
:101DB000D72B02D0002B3DD053E06B4B1B68674AFA
:101DC00012781344634A12781A70644B1B780133FB
:101DD000DAB2624B1A70654B01221A7056E0634BFF
:101DE0001B78012B14D1604B1B6800221A705E4BCC
:101DF0001B680133D7221A705B4B1B680233292200
:101E00001A705B4B01221A70544B03221A700DE0BA
:101E1000554B1B68514A127813444E4A12781A7077
:101E20004E4B1B780133DAB24C4B1A704F4B0022E9
:101E30001A702BE04D4B1B78012B03D14B4B00222A
:101E40001A7023E0484B1B68444A12781344414AF5
:101E500012781A70414B1B780133DAB23F4B1A707B
:101E600014E0434B1B78002B10D03F4B1B683B4AC0
:101E700012781344374A12781A70384B1B780133A2
:101E8000DAB2364B1A70394B00221A70334B1B787A
:101E9000062B26D9314B1B781A46364B1B78063356
:101EA0009A422BD12A4840F225510022FFF70AFE20
:101EB0002C4B1B6818460021244A002303F03CFDEC
:101EC000224B1B68002B05D0204B1B68002B01D038
:101ED00003F0BAFF254B00221A70254B00221A701E
:101EE0000CE01E4B1B78062B08D11F4B1A681B4BAE
:101EF0001B78013B13441A781E4B1A70144840F2A9
:101F00002661FFF737FE0346002B7CD0104840F2D5
:101F10002661FFF78BFE184B1A78184B1B789A42F4
:101F200056D2154B1B78022B2CD8094A144B1B6830
:101F3000114909780B441B789BB293800E4B1B7898
:101F40000133DAB20C4B1A705DE000BF680000206C
:101F50000010014047000020640000207D1D00208B
:101F6000941D00208C1D0020781D0020911D002054
:101F7000921D0020600000207C1D0020851D002097
:101F8000881D0020234B1B78002B1AD1224B1B6885
:101F9000224A127813441B78D72B02D11D4B012201
:101FA0001A701F4A1C4B1B681C4909780B441B788C
:101FB0009BB29380194B1B780133DAB2174B1A701E
:101FC00021E0174B00229A80124B00221A701AE06F
:101FD000124B00221A70134B00221A700D4B002274
:101FE0001A700F4840F225510122FFF76BFD0E4891
:101FF0004FF48071002202F091FF0B484FF4006112
:10200000002202F08BFF094B1B68002B01D003F06C
:102010001BFF80BD911D0020881D00207C1D00201D
:10202000001001407D1D00200000024068000020DB
:1020300080B58EB004AF0346FB711020012101F082
:1020400079F90120012101F039F94FF400733B6265
:10205000022387F82430002387F82630002387F8EE
:102060002730022387F8253007F1200365481946F9
:1020700002F0ACFE4FF480633B62022387F8243009
:10208000002387F82630002387F82730022387F8BB
:10209000253007F120035B48194602F097FE5948A6
:1020A0000921072202F052FF56480A21072202F0B6
:1020B0004DFF4FF410633B62012387F82430002367
:1020C00087F82630002387F82730022387F8253049
:1020D00007F120034B48194602F078FE49484FF4B7
:1020E0008071002202F01AFF46484FF4006100227E
:1020F00002F014FF4448FFF791FB4FF461433B614A
:102100000023BB820023FB8200233B830023BB838D
:102110000C237B8307F110033B481946FFF7E6FBCE
:1021200039484FF45871FFF715FD374840F22661E2
:102130000122FFF7C7FC344840F225510122FFF786
:10214000C1FC31480121FFF78DFC4FF4407004F0D1
:10215000C3FC25233B730E237B730023BB73012336
:10216000FB7307F10C03184604F0C8FC2520FFF7A9
:10217000A5FD264B00221A70254B00221A70254B14
:10218000254A1A60254B244A1A6003F081FF244B2C
:1021900000221A70234B00221A70234B00221A705F
:1021A000224B00221A70224B00221A70FB79002B5E
:1021B00024D10123009300230193002302930023E1
:1021C00003931C481C498022002301F029FF1B4B6C
:1021D00000221A7701200021032203F087FA024629
:1021E000174B1A60164B1B68002B07D0144B1B684B
:1021F000184600210022002303F0FEFA00BF283712
:10220000BD4680BD0000024000100140901D00202E
:10221000841D0020881D00205A210020781D0020E8
:102220007D1D00207C1D0020851D0020911D0020AB
:10223000921D0020BD2C000818720008DC2200202E
:102240008C1D002090B583B000AF0023FB715E4B66
:102250001B6800221A705C4B1B680133D7221A706E
:10226000594B1B68023329221A70574B1B680333E2
:10227000564A12781A70544B1B68043302221A70A3
:10228000514B1B680633524A12781A700023FB71B7
:1022900016E0FB79132B09D84B4B1A68FB790733EF
:1022A0001344FA794B498A5C1A7006E0464B1A6867
:1022B000FB790733134400221A70FB790133FB7159
:1022C000FB79132BE5D90023FB710EE0FB79072B7B
:1022D00008D83D4B1A68FB791B331344FA793E4901
:1022E0008A5C1A70FB790133FB71FB79042BEDD901
:1022F000354B1B68203302221A700023FB7128E043
:10230000314B1A68FB795B002133D118FA793348D5
:102310001346DB009B1A9B0003441B791B01DCB2B4
:10232000FA792E481346DB009B1A9B0003445B7925
:10233000DBB222461343DBB2DBB20B70224B1A68CE
:10234000FB795B002233134400221A70FB790133BE
:10235000FB71FB79012BD3D90023FB710BE01A4BE6
:102360001A68FB7925331344FA791D498A5C1A707F
:10237000FB790133FB711B4B1B78FA799A42EED340
:10238000114B1B680533174A12782032D2B21A70EB
:102390000D4B1B68134A127825329C180A4B1B6898
:1023A0005A1C104B1B782433DBB21046194600F040
:1023B0003FFD034623700B4B1B782633DBB21846D8
:1023C0000C37BD4690BD00BF881D00204400002092
:1023D00046000020000000203C0000200C230020CC
:1023E000140000204500002080B400AF00231846F0
:1023F000BD465DF8047B704780B400AF00231846EB
:10240000BD465DF8047B704780B400AF00231846DA
:10241000BD465DF8047B704780B582B000AF0023F5
:10242000FB7100237B7100233B710023BB7182E0B1
:10243000494B1B68FA79063213441B78012B75D877
:10244000454B1A68FB79073313441B781B09DBB231
:1024500003F00F03042B02D0082B39D065E03E4B6C
:102460001A68FB79073313441B7803F00F03012B21
:1024700003D0022B2AD0002B29E0374B1B68FA79B6
:10248000083213441B785B08DBB203F00703D9B2B0
:10249000314B1B68FA79083213441B7803F00103AF
:1024A000DBB208461946FFF76FF92B4B1B68FA7928
:1024B000083213441B781B09DBB203F00F031846E4
:1024C00000F0BCFFFB790333FB7100E000BF2CE0A0
:1024D0000023BB7112E0BB791F4A1168FA7902F13F
:1024E0000800BA79024401320A4411781B4A1344A5
:1024F0000A4683F88624BB790133BB71164B1B68EF
:10250000FA79083213441B78BA799A42E3D3144813
:10251000FDF73AFE104B1B68FA79083213441A781B
:10252000FB791344DBB20333FB7104E0012000F0BC
:10253000E3FA03460CE0FA79074B1B6805331B7876
:10254000013B9A42FFF674AF002000F0D5FA034633
:1025500018460837BD4680BD781D0020941D002018
:102560001A22002080B400AF00231846BD465DF853
:10257000047B704780B400AF00231846BD465DF869
:10258000047B704780B400AF00231846BD465DF859
:10259000047B704780B400AF00231846BD465DF849
:1025A000047B704780B500AF044B40221A700020B6
:1025B00000F0A2FA0346184680BD00BF4600002086
:1025C00090B583B000AF0023FB710023BB71A24B19
:1025D0001B6800221A70A04B1B680133D7221A70A7
:1025E0009D4B1B68023329221A709B4B1B680333D7
:1025F0009A4A12781A70984B1B68043315221A7085
:10260000954B1B680633964A12781A700023BB71EB
:102610004AE2914B1A68FB7907331344BA791A706E
:10262000FB790133FB718C4B1A68FB790733D118A6
:10263000BA798C481346DB009B1A9B0003441B7934
:102640001B01DCB2BA7987481346DB009B1A9B005A
:1026500003445B79DBB222461343DBB2DBB20B707F
:10266000FB790133FB71BA797E491346DB009B1A73
:102670009B000B441B79012B00F05A81022B00F0C8
:10268000C881002B40F00D82BA7976491346DB00F1
:102690009B1A9B000B445B79032B00F2018201A281
:1026A00052F823F0B52600082D2900082D2900082E
:1026B000C3270008BA796B491346DB009B1A9B00BD
:1026C0000B4410331B78002B2CD0634B1A68FB791A
:1026D0000733D118BA7963481346DB009B1A9B0075
:1026E000034408335B6803F47F431B0ADBB20B70BF
:1026F000FB790133FB71584B1A68FB790733D1180A
:10270000BA7958481346DB009B1A9B0003440833F0
:102710005B6803F47F031B0CDBB20B70FB790133A6
:10272000FB712BE04C4B1A68FB790733D118BA794F
:102730004C481346DB009B1A9B00034408331B687C
:1027400003F47F431B0ADBB20B70FB790133FB718F
:10275000414B1A68FB790733D118BA7941481346BF
:10276000DB009B1A9B00034408331B6803F47F03C0
:102770001B0CDBB20B70FB790133FB71364B1A6813
:10278000FB790733D118BA7936481346DB009B1A18
:102790009B0003449B790B70FB790133FB712E4B3B
:1027A0001A68FB790733D118BA792E481346DB0033
:1027B0009B1A9B000344DB790B70FB790133FB719F
:1027C000B5E0BA7927491346DB009B1A9B000B44FE
:1027D00010331B78002B47D01F4B1A68FB79073347
:1027E000D118BA791F481346DB009B1A9B0003449B
:1027F00008335B68DBB20B70FB790133FB71164B5E
:102800001A68FB790733D118BA7916481346DB00EA
:102810009B1A9B00034408335B6803F47F431B0A45
:10282000DBB20B70FB790133FB710B4B1A68FB7940
:102830000733D118BA790B481346DB009B1A9B006B
:10284000034408335B6803F47F031B0CDBB20B709B
:10285000FB790133FB7146E0881D00204400002015
:10286000460000200C230020A14B1A68FB79073397
:10287000D118BA799F481346DB009B1A9B0003448A
:1028800008331B68DBB20B70FB790133FB71984B8B
:102890001A68FB790733D118BA7996481346DB00DA
:1028A0009B1A9B00034408331B6803F47F431B0AF5
:1028B000DBB20B70FB790133FB718D4B1A68FB792E
:1028C0000733D118BA798B481346DB009B1A9B005B
:1028D000034408331B6803F47F031B0CDBB20B704B
:1028E000FB790133FB71824B1A68FB790733D118EE
:1028F000BA7980481346DB009B1A9B0003449B79FE
:102900000B70FB790133FB71794B1A68FB79073344
:10291000D118BA7977481346DB009B1A9B00034411
:10292000DB790B70FB790133FB7100E000BFB7E08E
:10293000BA7970491346DB009B1A9B000B445B7904
:10294000002B00D0ADE06A4B1A68FB790733D11831
:10295000BA7968481346DB009B1A9B00034408338E
:102960001B68DBB20B70FB790133FB71604B1A689B
:10297000FB790733D118BA795E481346DB009B1AFE
:102980009B00034408331B6803F47F431B0ADBB23C
:102990000B70FB790133FB71554B1A68FB790733D8
:1029A000D118BA7953481346DB009B1A9B000344A5
:1029B00008331B6803F47F031B0CDBB20B70FB793D
:1029C0000133FB714A4B1A68FB790733D118BA7986
:1029D00048481346DB009B1A9B00034408331B68DE
:1029E0001B0EDBB20B70FB790133FB71404B1A6895
:1029F000FB790733D118BA793E481346DB009B1A9E
:102A00009B0003449B790B70FB790133FB7100BF82
:102A100047E0BA7937491346DB009B1A9B000B4409
:102A20005B79012B00D03CE0314B1A68FB7907330E
:102A3000D118BA792F481346DB009B1A9B00034438
:102A400008331B68DBB20B70FB790133FB71284B39
:102A50001A68FB790733D118BA7926481346DB0088
:102A60009B1A9B00034408331B6803F47F431B0A33
:102A7000DBB20B70FB790133FB711D4B1A68FB79DC
:102A80000733D118BA791B481346DB009B1A9B0009
:102A900003449B790B70FB790133FB7100BF00E0AD
:102AA00000BFBB790133BB71BB79012B7FF6B1ADA0
:102AB0000F4B1B680533FA790232D2B21A700C4BF5
:102AC0001A68FB790733D418094B1B685A1CFB7929
:102AD0000633DBB21046194600F0AAF9034623700C
:102AE000FB790833DBB218460C37BD4690BD00BFFA
:102AF000881D00200C23002090B583B000AF034652
:102B0000FB71204B1B6800221A701E4B1B6801339F
:102B1000D7221A701B4B1B68023329221A70194BDB
:102B20001B680333184A12781A70164B1B68073358
:102B3000164A126812791A70124B1B680433FF226E
:102B40001A70104B1B680633114A12781A700D4B1D
:102B50001B680833FA791A700A4B1B680533042284
:102B60001A70084B1B6803F10904064B1B681846D2
:102B7000092100F05DF9034623700A2318460C373B
:102B8000BD4690BD881D002044000020781D002017
:102B90004600002080B500AF454B1B6804331B780E
:102BA000013B132B77D801A252F823F0FD2B00082C
:102BB000972C00080B2C0008972C0008192C0008F3
:102BC000972C0008272C0008972C0008352C0008AB
:102BD000432C0008972C0008512C0008972C000863
:102BE0005F2C0008972C00086D2C0008972C00081B
:102BF0007B2C0008972C0008892C0008FFF722FB8B
:102C000003461A462B4B1A704FE0FFF7EDFB0346C5
:102C10001A46284B1A7048E0FFF7EEFB03461A46A7
:102C2000244B1A7041E0FFF7EFFB03461A46214B95
:102C30001A703AE0FFF7F0FB03461A461D4B1A7074
:102C400033E0FFF78FFC03461A461A4B1A702CE04C
:102C5000FFF790FC03461A46164B1A7025E0FFF763
:102C600091FC03461A46134B1A701EE0FFF792FCC4
:102C700003461A460F4B1A7017E0FFF793FC034602
:102C80001A460C4B1A7010E0FFF79AFC03461A46DE
:102C9000084B1A7009E0084B01221A700620FFF752
:102CA0002BFF03461A46034B1A7000BF80BD00BFBE
:102CB000781D0020851D0020841D002080B584B073
:102CC00000AF78604B4B01221A774A4B01221A77EA
:102CD000494B1B68002B00F08880474B1B68184647
:102CE000002142F21072002302F082FE0346012B03
:102CF0006FD1404B00221A77404B1B78002B02D03B
:102D0000012B0DD05FE03E48FDF73EFA3D4B00221F
:102D10001A703D4840F225510122FEF7D3FE52E0E1
:102D20003A4B1A68374B1B78013B13441B78FB73F3
:102D3000374B00221A70354B1A68324B1B78013B17
:102D4000DBB21046194600F073F803461A46FB7BC7
:102D500093422ED12D4B1B6803331A782D4B1B78D1
:102D60009A4226D1FFF716FF294B00221A70254BF5
:102D700000221A70284B00221A7028484FF48071E4
:102D8000012202F0CBF825484FF40061012202F045
:102D9000C5F81D4A224B1B681D4909780B441B7856
:102DA0009BB293801A4B1B780133DAB2184B1A701E
:102DB00008E01C4B01221A70134840F225510122F1
:102DC000FEF780FE00BF0B4B9B690133094A9361FC
:102DD0000BE01548FDF7D8F9C82001F03BFA13487D
:102DE000FDF7D2F90120FFF723F9024B01221A77F0
:102DF0006BE700BFDC2200208C1D00206400002057
:102E00001A2200207D1D002000100140781D0020A6
:102E10007C1D002044000020911D00200000024085
:102E2000881D0020901D00201871000818700008EF
:102E300080B487B000AF78600B46FB700023FB7551
:102E40007B683B61FB78FB7320E03B695A1C3A616D
:102E50001A78FB7D5340FB75FB7D03F00103002BCB
:102E600001D0802200E00022FB7D5B08DBB2DBB2F8
:102E70001343DBB2FB75FB7D5BB2002B03DAFB7DFA
:102E800083F03C03FB75FB7B013BFB73FB7B002B5F
:102E9000DBD1FB7D18461C37BD465DF8047B7047CF
:102EA00080B582B000AF0F4B7B600F4B3B6007E0FB
:102EB0003B681A1D3A607A68111D796012681A60C1
:102EC0003B680A4A9342F3D309480A494FF000028B
:102ED0008842B8BF40F8042BFADB00F015F9083738
:102EE000BD4680BD6F7A0008000000206000002011
:102EF000600000204823002080B400AFFEE700BF40
:102F000080B483B000AF0346FB80044AFB881360A3
:102F10000C37BD465DF8047B704700BF00300040B1
:102F200080B483B000AF0346FB71044AFB79536061
:102F30000C37BD465DF8047B704700BF0030004091
:102F400080B483B000AF0346FB80044AFB889360E3
:102F50000C37BD465DF8047B704700BF0030004071
:102F600080B400AF034B4AF6AA221A60BD465DF852
:102F7000047B70470030004080B400AF034B4CF638
:102F8000CC421A60BD465DF8047B704700300040BB
:102F900080B584B000AF0346FB710023FB73384B50
:102FA0001B780133DAB2364B1A70354B1B78092B7C
:102FB00009D9344B1B7883F00103DAB2314B1A7014
:102FC0002F4B00221A700023FB7353E0FA7B2E492B
:102FD00013465B001344DB000B4403F5F0735A887F
:102FE000FB799BB29A4242D1FA7B274913465B0098
:102FF0001344DB000B4403F5F0739B88022B36D19E
:10300000FA7B214913465B001344DB000B4403F5B4
:10301000F873DB78012B1DD1FB7B122B02D0FB7BDD
:10302000132B07D1184B012283F8A323164B01223F
:1030300083F8BB23FA7B13465B001344DB0003F5E4
:10304000F073114A1A440F4B1B7810461946FDF7CE
:103050008FFF0CE0FA7B13465B001344DB0003F5A3
:10306000F073094A134418460021FDF781FFFB7BEA
:103070000133FB73FB7B132BA8D91037BD4680BDF2
:103080006C0000206D000020941D002080B584B0ED
:1030900000AF78600023FB7303F0F8FDC82001F057
:1030A000D9F800F04BFE00F031FF03F037F903F0E0
:1030B000F1F903F0C3FA00F033FE0023FB730CE0D8
:1030C000FB7BDB010E4A13441846FDF75DF86420D4
:1030D00001F0C0F8FB7B0133FB73FB7B0F2BEFD9B7
:1030E0000848FDF751F80020FEF7A2FFFEF74AFA64
:1030F00000F07AF9002001F061F81037BD4680BD7C
:10310000207200081870000880B584B004AF02F087
:1031100019F8012300930023019300230293002355
:103120000393044804498022002300F079FF01F052
:1031300081F9FEE78D300008207A000880B400AFE6
:10314000FEE700BF80B483B000AF78603960FEE76F
:1031500080B582B000AF03F077FD03467B607B68EB
:103160000837BD4680BD00BF80B489B000AF78602D
:103170000023BB6100237B610023FB6102233B61D1
:103180000023FB600223BB60484B9B6803F00C03E9
:10319000BB61BB69042B07D0082B09D0002B3FD1A2
:1031A0007B68434A1A603FE07B68424A1A603BE012
:1031B0003E4B5B6803F480039B0DFB603B4B5B68FD
:1031C00003F03F03BB60FB68002B0DD0394ABB689E
:1031D000B2FBF3F2354B596847F6C0730B409B09BD
:1031E00003FB02F3FB610CE0314ABB68B2FBF3F274
:1031F0002E4B596847F6C0730B409B0903FB02F343
:10320000FB612A4B5B6803F440331B0C01335B000A
:103210003B61FA693B69B2FBF3F27B681A6003E039
:103220007B68234A1A6000BF204B9B6803F0F003C1
:10323000BB61BB691B09BB611F4ABB6913441B7897
:10324000DBB27B617B681A687B69DA407B685A6015
:10325000164B9B6803F4E053BB61BB699B0ABB61DF
:10326000154ABB6913441B78DBB27B617B685A68E3
:103270007B69DA407B689A600C4B9B6803F460437F
:10328000BB61BB695B0BBB610B4ABB6913441B7819
:10329000DBB27B617B685A687B69DA407B68DA6005
:1032A0002437BD465DF8047B704700BF00380240FC
:1032B0000024F40000127A004800002080B483B09B
:1032C00000AF78600B46FB70FB78002B06D00949F5
:1032D000084B1A6B7B6813430B6306E00549054BEB
:1032E0001A6B7B68DB4313400B630C37BD465DF8FC
:1032F000047B70470038024080B483B000AF786030
:103300000B46FB70FB78002B06D00949084B1A6C62
:103310007B6813430B6406E00549054B1A6C7B6818
:10332000DB4313400B640C37BD465DF8047B7047EC
:103330000038024080B483B000AF78600B46FB7069
:10334000FB78002B06D00949084B5A6C7B68134365
:103350004B6406E00549054B5A6C7B68DB43134020
:103360004B640C37BD465DF8047B70470038024063
:1033700080B483B000AF78600B46FB70FB78002B05
:1033800006D00949084B1A6A7B6813430B6206E0B2
:103390000549054B1A6A7B68DB4313400B620C3707
:1033A000BD465DF8047B70470038024080B483B0AE
:1033B00000AF78600B46FB70FB78002B06D0094904
:1033C000084B5A6A7B6813434B6206E00549054B7C
:1033D0005A6A7B68DB4313404B620C37BD465DF88D
:1033E000047B70470038024080B582B000AF0420F3
:1033F0000121FFF763FF38233B6000237B7101232A
:103400003B710023BB710223FB713B460A481946FE
:1034100001F0DCFC08482021002201F07FFD064875
:103420001021002201F07AFD03480821002201F05A
:1034300075FD0837BD4680BD0008024080B582B0EA
:1034400000AF0346FB71FB7903F00103002B05D1AC
:1034500016482021002201F061FD04E013482021DC
:10346000012201F05BFDFB7903F00203002B05D183
:103470000E481021002201F051FD04E00B481021FC
:10348000012201F04BFDFB7903F00403002B05D171
:1034900006480821002201F041FD04E0034808210C
:1034A000012201F03BFD0837BD4680BD0008024007
:1034B00080B400AFC54B062283F8A020C34B062280
:1034C00083F84021C14B06221A70C04B0222A3F898
:1034D000E221BE4B0422A3F8E021BC4B0122A3F859
:1034E000E421BA4B0322A3F8E621B84B40F60922A7
:1034F000A3F8E821B54B4FF41062A3F8EA21B34BCF
:10350000B3F8E631013B9BB29BB243F430639BB20C
:103510009AB2AE4BA3F8EC21AC4B40F60142A3F8B3
:10352000EE21AA4B4FF47062A3F8F021A74B0022C2
:1035300083F8F321A54B0122A3F8FA21A34B04221F
:10354000A3F8F821A14B0122A3F8FC219F4B0322F1
:10355000A3F8FE219D4B40F60922A3F800229B4BC5
:103560004FF41062A3F80222984BB3F8FE31013BEE
:103570009BB29BB243F430639BB29AB2934BA3F8D5
:103580000422924B40F60142A3F806228F4B4FF4DF
:103590007062A3F808228D4B002283F80B228B4B1C
:1035A0000222A3F81222894B0322A3F81022874B90
:1035B0000122A3F81422854B0322A3F81622834B81
:1035C00040F60922A3F81822804B4FF41062A3F8AA
:1035D0001A227E4BB3F81632013B9BB29BB243F4E6
:1035E00030639BB29AB2794BA3F81C22774B40F61A
:1035F0000142A3F81E22754B4FF47062A3F82022FB
:10360000724B002283F82322704B0222A3F82A2255
:103610006E4B0222A3F828226C4B0122A3F82C2225
:103620006A4B0322A3F82E22684B40F60922A3F826
:103630003022664B4FF41062A3F83222634BB3F88A
:103640002E32013B9BB29BB243F430639BB29AB2E1
:103650005E4BA3F834225D4B40F60142A3F83622BC
:103660005A4B4FF47062A3F83822584B002283F86B
:103670003B22564B0222A3F84222544B0122A3F8CC
:103680004022524B0122A3F84422504B0322A3F8BC
:1036900046224E4B40F60922A3F848224B4B4FF4EA
:1036A0001062A3F84A22494BB3F84632013B9BB261
:1036B0009BB243F430639BB29AB2444BA3F84C22C2
:1036C000424B40F60142A3F84E22404B4FF4706249
:1036D000A3F850223D4B002283F853223B4B00229B
:1036E000A3F85A22394B0422A3F85822374B01225F
:1036F000A3F85C22354B0322A3F85E22334B40F63D
:103700000922A3F86022314B4FF41062A3F8622221
:103710002E4BB3F85E32013B9BB29BB243F4306355
:103720009BB29AB2294BA3F86422284B40F601427F
:10373000A3F86622254B4FF47062A3F86822234B4E
:10374000002283F86B22214B0122A3F872221F4B27
:103750000522A3F870221D4B0122A3F874221B4BF3
:103760000322A3F87622194B40F60922A3F8782207
:10377000164B4FF41062A3F87A22144BB3F876324A
:10378000013B9BB29BB243F430639BB29AB20F4BA6
:10379000A3F87C220D4B40F60142A3F87E220B4B8E
:1037A0004FF47062A3F88022084B002283F8832232
:1037B000064B0122A3F88A22044B0022A3F8882298
:1037C000024B0122A3F88C2202E000BF941D0020CE
:1037D000C54B0322A3F88E22C34B40F60922A3F85F
:1037E0009022C14B4FF41062A3F89222BE4BB3F863
:1037F0008E32013B9BB29BB243F430639BB29AB2D0
:10380000B94BA3F89422B84B40F60142A3F8962294
:10381000B54B4FF47062A3F89822B34B002283F8A3
:103820009B22B14B0022A3F8A222AF4B0322A3F8A4
:10383000A022AD4B0122A3F8A422AB4B0522A3F892
:10384000A622A94B40F60922A3F8A822A64B4FF4C2
:103850001062A3F8AA22A44BB3F8A632013B9BB294
:103860009BB243F430639BB29AB29F4BA3F8AC2255
:103870009D4B40F60142A3F8AE229B4B4FF4706281
:10388000A3F8B022984B002283F8B322964B012272
:10389000A3F8BA22944B4FF6FF72A3F8B822924BCA
:1038A0000122A3F8BC22904B0522A3F8BE228E4B26
:1038B00040F60922A3F8C0228B4B4FF41062A3F804
:1038C000C222894BB3F8BE32013B9BB29BB243F498
:1038D00030639BB29AB2844BA3F8C422824B40F669
:1038E0000142A3F8C622804B4FF47062A3F8C822AD
:1038F0007D4B002283F8CB227B4B0122A3F8D222FE
:10390000794B0122A3F8D022774B0122A3F8D422CD
:10391000754B0422A3F8D622734B40F60922A3F874
:10392000D822714B4FF41062A3F8DA226E4BB3F831
:10393000D632013B9BB29BB243F430639BB29AB246
:10394000694BA3F8DC22684B40F60142A3F8DE2263
:10395000654B4FF47062A3F8E022634B002283F8BA
:10396000E322614B0022A3F8EA225F4B0122A3F875
:10397000E8225D4B0122A3F8EC225B4B0322A3F863
:10398000EE22594B40F60922A3F8F022564B4FF491
:103990001062A3F8F222544BB3F8EE32013B9BB213
:1039A0009BB243F430639BB29AB24F4BA3F8F4221C
:1039B0004D4B40F60142A3F8F6224B4B4FF4706298
:1039C000A3F8F822484B002283F8FB22464B002242
:1039D000A3F80223444B0222A3F80023424B012206
:1039E000A3F80423404B0422A3F806233E4B40F6E1
:1039F0000922A3F808233C4B4FF41062A3F80A23D2
:103A0000394BB3F80633013B9BB29BB243F43063AE
:103A10009BB29AB2344BA3F80C23334B40F60142CD
:103A2000A3F80E23304B4FF47062A3F810232E4BF3
:103A3000002283F813232C4B0222A3F81A232A4BCB
:103A40000022A3F81823284B0222A3F81C23264B9C
:103A50000822A3F81E23244B40F60922A3F82023B2
:103A6000214B4FF41062A3F822231F4BB3F81E33EF
:103A7000013B9BB29BB243F430639BB29AB21A4BA8
:103A8000A3F82423184B40F60142A3F82623164B33
:103A90004FF47062A3F82823134B002283F82B23E2
:103AA000114B0022A3F832230F4B0522A3F8302339
:103AB0000D4B0222A3F834230B4B0822A3F8362324
:103AC000094B40F60922A3F83823074B4FF4106244
:103AD000A3F83A23044BB3F83633013B9BB29BB2B5
:103AE00043F430639BB201E0941D00209AB28B4BEB
:103AF000A3F83C23894B40F60142A3F83E23874BB1
:103B00004FF47062A3F84023844B002283F84323D0
:103B1000824B0022A3F84A23804B0022A3F84823BB
:103B20007E4B0222A3F84C237C4B0822A3F84E23A1
:103B30007A4B40F60922A3F85023784B4FF41062D9
:103B4000A3F85223754B40F6FF32A3F85423734B6E
:103B500040F60142A3F85623704B4FF47062A3F86D
:103B600058236E4B002283F85B236C4B0222A3F890
:103B700062236A4B0522A3F86023684B0222A3F854
:103B80006423664B0822A3F86623644B40F609229F
:103B9000A3F86823614B4FF41062A3F86A235F4BCC
:103BA000B3F86633013B9BB29BB243F430639BB2E4
:103BB0009AB25A4BA3F86C23584B40F60142A3F833
:103BC0006E23564B4FF47062A3F87023534B0022C0
:103BD00083F87323514B0222A3F87A234F4B4FF6FD
:103BE000FF72A3F878234D4B0122A3F87C234B4BA3
:103BF0000522A3F87E23494B40F60922A3F880232F
:103C0000464B4FF41062A3F88223444BB3F87E3343
:103C1000013B9BB29BB243F430639BB29AB23F4BE1
:103C2000A3F884233D4B40F60142A3F886233B4B87
:103C30004FF47062A3F88823384B002283F88B235B
:103C4000364B0122A3F89223344B0322A3F890238E
:103C5000324B0222A3F89423304B0822A3F8962378
:103C60002E4B40F60922A3F898232C4B4FF41062F8
:103C7000A3F89A23294BB3F89633013B9BB29BB22E
:103C800043F430639BB29AB2244BA3F89C23234B9A
:103C900040F60142A3F89E23204B4FF47062A3F834
:103CA000A0231E4B002283F8A3231C4B0122A3F860
:103CB000AA231A4B0222A3F8A823184B0222A3F826
:103CC000AC23164B0822A3F8AE23144B40F609226E
:103CD000A3F8B023114B4FF41062A3F8B2230F4B9B
:103CE000B3F8AE33013B9BB29BB243F430639BB25B
:103CF0009AB20A4BA3F8B423084B40F60142A3F84A
:103D0000B623064B4FF47062A3F8B823034B00228E
:103D100083F8BB23BD465DF8047B7047941D0020EB
:103D200080B582B000AF0023FB71FFF7C1FB02F04A
:103D300091FAFB7918460837BD4680BD80B582B040
:103D400000AF02200121FFF7B9FA01200121FFF79E
:103D5000B5FA80233B6001233B710123BB71002333
:103D6000FB7102237B713B463B48194601F02EF85C
:103D700041F202033B6001233B710123BB7100232D
:103D8000FB7102237B713B463448194601F01EF853
:103D900031488021012201F0C1F83048022101227E
:103DA00001F0BCF82D484FF48051012201F0B6F823
:103DB0004FF480733B6000233B710123BB710123EF
:103DC000FB7102237B713B462348194600F0FEFF3E
:103DD00048F201033B6000233B710123BB710123C7
:103DE000FB7102237B713B461C48194600F0EEFF35
:103DF00000F058F80346002B06D000F033F8184BBB
:103E0000002283F8DE2103E0154B012283F8DE2136
:103E100000F05AF80346002B06D000F02DF8104BA6
:103E2000002283F83E2103E00D4B012283F83E215E
:103E300000F05CF80346002B06D000F029F8084B90
:103E4000002283F89E2003E0054B012283F89E2088
:103E50000837BD4680BD00BF00040240000002409C
:103E6000941D002080B500AF02488021002201F09F
:103E700055F880BD0004024080B500AF03484FF400
:103E80008051002201F04AF880BD00BF00000240CE
:103E900080B500AF02480221002201F03FF880BD4A
:103EA0000000024080B500AF06484FF4807101F079
:103EB0001BF80346012B01D1002300E00123184623
:103EC00080BD00BF0004024080B500AF06484FF43B
:103ED000004101F009F80346012B01D1002300E065
:103EE0000123184680BD00BF0000024080B500AF2E
:103EF0000548012100F0F8FF0346012B01D1002302
:103F000000E00123184680BD0000024080B586B065
:103F100004AF0023FB7108E0FB79154ADB00134472
:103F200001221A71FB790133FB71FB79052BF3D95F
:103F300045F25550FEF7E4FF0520FEF7F1FF40F291
:103F40007120FEF7FDFFFFF70BF8FFF715F80123CF
:103F50000093002301930023029300230393054859
:103F600005494022002300F05BF80837BD4680BDBC
:103F7000DC2200207D3F0008287A000880B582B04E
:103F800000AF7860254B1B68002B03D1234B1B79B6
:103F9000012B2BD1214B9B68002B03D11F4B1B7B8B
:103FA000012B23D11D4B1B69002B03D11B4B1B7D08
:103FB000012B1BD1194B9B69002B03D1174B1B7F86
:103FC000012B13D1154B1B6A002B04D1134B93F813
:103FD0002430012B0AD1114B9B6A002B04D10F4BCB
:103FE00093F82C30012B01D1FEF7BAFF0B4B0022C6
:103FF0001A600A4B00229A60084B00221A61074B94
:1040000000229A61054B00221A62044B00229A6238
:104010004FF4FA7000F01EF9B4E700BFDC22002074
:1040200080B58AB002AFF860B9603B601346FB8090
:10403000FB68002B04D14FF0500080F31188FEE79D
:10404000BB6A042B04D94FF0500080F31188FEE7BF
:10405000FB881846396B00F0CFFDB861BB69002BB7
:1040600000F08680BB691A6BFB8803F18043013B3B
:104070009B0013447B617B6923F007037B617B69B1
:1040800003F00703002B04D04FF0500080F3118899
:10409000FEE7FB880093B869B968BA6A7B6B00F0E9
:1040A000C7FC7869F9683A6801F06EFE0246BB69A0
:1040B0001A60BB691B6803F00703002B04D04FF0A4
:1040C000500080F31188FEE7FB6A002B02D0FB6AE8
:1040D000BA691A6001F0C4FE314B1B680133304AE3
:1040E0001360304B1B68002B09D12E4ABB6913604B
:1040F0002B4B1B68012B0FD100F0D0FC0CE02A4B9E
:104100001B68002B08D1274B1B68DA6ABB6A9A42EE
:1041100002D8244ABB691360BB69DA6A234B1B6867
:104120009A4203D9BB69DB6A204A1360204B1B68A3
:1041300001331F4A1360BB69DA6A1E4B1B689A423F
:1041400003D9BB69DB6A1B4A1360BB69DA6A134691
:104150009B0013449B00184A1A44BB690433104661
:10416000194600F067FF0123FB6101F08BFE02E0BE
:104170004FF0FF33FB61FB69012B0BD10A4B1B682E
:10418000002B07D0074B1B68DA6ABB6A9A4201D240
:1041900001F05AFEFB6918462037BD4680BD00BFBE
:1041A000480100207000002058010020500100202C
:1041B0006C010020540100207400002080B584B000
:1041C00000AF786001F04CFE1D4B1B687A689A4284
:1041D00001D100237B607B68002B02D1184B1B6848
:1041E00000E07B68FB60FB680433184600F082FF48
:1041F000FB689B6A002B04D0FB681833184600F05C
:1042000079FFFB6804330F48194600F013FF0E4B8B
:104210001B6801330C4A13600C4B1B6801330B4ABB
:10422000136001F02FFE0A4B1B68002B04D07B6843
:10423000002B01D101F008FE1037BD4680BD00BF44
:10424000700000201C010020300100206C010020C3
:104250005801002080B584B000AF78600023FB6077
:104260007B68002B12D000F019F90C4B1A687B68A0
:104270001344BB600A4B1B680433184600F03AFF36
:10428000B86800F083FC00F017F9F860FB68002BB9
:1042900001D101F0D9FD1037BD4680BD4C01002091
:1042A0007000002080B584B000AF786001F0D8FDC8
:1042B0001E4B1B687A689A4201D100237B607B68A1
:1042C000002B02D1194B1B6800E07B68FB60FB6888
:1042D0000433184600F00EFFFB689B6A002B04D0E5
:1042E000FB681833184600F005FFFB6804331048DC
:1042F000194600F09FFE01F0C5FD7B68002B12D12E
:104300000C4B1B68002B02D001F09EFD0BE0084B0C
:104310001A68094B1B689A4203D1044B00221A60A9
:1043200001E000F0EDF91037BD4680BD70000020BF
:1043300034010020580100204801002080B485B0DD
:1043400000AF78600023FB607B68BB607B68002B5C
:1043500004D14FF0500080F31188FEE7BB685B6921
:104360000A4A93420AD1BB689B6A094A934205D024
:10437000BB689B6A002B01D10123FB60FB681846D8
:104380001437BD465DF8047B704700BF3401002040
:104390000801002080B584B000AF78607B68002BF6
:1043A00004D14FF0500080F31188FEE77B68FB607A
:1043B000FB68002B34D01C4B1B68FA689A422FD044
:1043C00001F04EFDF868FFF7B9FF0346012B25D138
:1043D000FB680433184600F08DFEFB68DA6A134B65
:1043E0001B689A4203D9FB68DB6A104A1360FB68BA
:1043F000DA6A13469B0013449B000D4A1A44FB687B
:1044000004331046194600F015FEFB68DA6A064BC5
:104410001B68DB6A9A4201D301F016FD01F032FD00
:104420001037BD4680BD00BF700000205401002041
:104430007400002080B586B004AF002300930023F1
:10444000019300230293002303931048104946224E
:104450000023FFF7E5FD78607B68012B0BD14FF05F
:10446000500080F311880B4B01221A600A4B002286
:104470001A6001F0CDFC7B68002B04D14FF0500096
:1044800080F31188FEE70837BD4680BD0D4A00085D
:10449000307A0008580100204C01002080B400AFA1
:1044A000044B1B680133034A1360BD465DF8047B6F
:1044B000704700BF5C01002090B583B000AF0023BF
:1044C0007B60374B1B68002B04D14FF0500080F30A
:1044D0001188FEE701F0C4FC314B1B68013B304AF8
:1044E00013602F4B1B68002B52D12E4B1B68002BE7
:1044F0004ED000233B6027E02B4BDB68DC6804F1E7
:104500001803184600F0F6FD231D184600F0F2FDD2
:10451000E26A264B1B689A4202D9E36A234A136077
:10452000E26A13469B0013449B00214A1A44231D50
:104530001046194600F07EFDE26A1E4B1B68DB6ADE
:104540009A4201D301233B60174B1B68002BD3D148
:10455000194B1B68002B0DD006E000F031F8164B0C
:104560001B68013B144A1360134B1B68002BF4D1EA
:1045700001233B603B68012B03D0104B1B68012BD0
:1045800006D101237B600D4B00221A6001F05CFC18
:1045900001F078FC7B6818460C37BD4690BD00BF23
:1045A0005C01002048010020080100205401002087
:1045B00074000020700000206001002064010020D1
:1045C00080B584B000AF454B1B68002B7DD1444BB8
:1045D0001B680133424A1360414B1B68002B2BD1EF
:1045E000404B1B681B68002B04D04FF0500080F339
:1045F0001188FEE73B4B1B68FB603B4B1B68394A4D
:104600001360394AFB681360384B1B680133374A23
:104610001360344B1B681B68002B04D1344B4FF0E4
:10462000FF321A6008E02F4B1B68DB68DB68BB6059
:10463000BB685B682E4A1360294B1A682C4B1B68B9
:104640009A4241D3274B1B681B68002B04D1284B8F
:104650004FF0FF321A6037E0224B1B68DB68DB68E3
:10466000BB60BB685B687B601D4B1A687B689A42C5
:1046700003D21F4A7B68136026E0BB6804331846E8
:1046800000F038FDBB689B6A002B04D0BB68183370
:10469000184600F02FFDBB68DA6A164B1B689A4279
:1046A00003D9BB68DB6A134A1360BB68DA6A134636
:1046B0009B0013449B00104A1A44BB680433104605
:1046C000194600F0B7FCBDE704E00C4B1B68013352
:1046D0000A4A13601037BD4680BD00BF5C01002050
:1046E0004C0100200001002004010020680100208E
:1046F00058000020540100207400002060010020B8
:1047000080B582B000AF344B1B68002B03D0334B15
:1047100001221A605CE0324B1B681A68304B1B6840
:104720001B6B9A4208D82E4B1A682D4B1B683433EA
:1047300010461946FEF706FD294B1B681B6B1846F1
:104740002849142202F0E6FA0346002B08D0244B35
:104750001A68234B1B68343310461946FEF7F2FCE7
:104760000DE0214B1B68002B04D14FF0500080F36B
:104770001188FEE71C4B1B68013B1B4A13601A4B58
:104780001A681A4913469B0013449B000B441B688C
:10479000002BE6D0144B1A6813469B0013449B0071
:1047A000124A13447B607B685B685A687B685A6076
:1047B0007B685A687B6808339A4204D17B685B68DF
:1047C0005A687B685A607B685B68DB68044A1360E0
:1047D0000837BD4680BD00BF5C0100206401002099
:1047E00070000020387A0008540100207400002076
:1047F00080B584B000AF786039607B68002B04D14D
:104800004FF0500080F31188FEE7124B1B681833FD
:104810007868194600F036FC0E4B1B6804331846C6
:1048200000F068FC3B68B3F1FF3F07D1094B1B6800
:1048300004330948194600F0FDFB07E0074B1A68EE
:104840003B681344FB60F86800F0A0F91037BD46E0
:1048500080BD00BF70000020340100204C0100200A
:1048600080B584B000AF78607B68DB68DB68BB60D4
:10487000BB68002B04D14FF0500080F31188FEE795
:10488000BB681833184600F035FC1C4B1B68002B26
:104890001DD1BB680433184600F02CFCBB68DA6AF3
:1048A000174B1B689A4203D9BB68DB6A144A136032
:1048B000BB68DA6A13469B0013449B00114A1A44F2
:1048C000BB6804331046194600F0B4FB05E0BB6832
:1048D00018330D48194600F0ADFBBB68DA6A0B4B84
:1048E0001B68DB6A9A4202D30123FB6001E00023CC
:1048F000FB60FB6818461037BD4680BD5C01002098
:1049000054010020740000200801002070000020E5
:1049100080B483B000AF78607B68002B04D14FF087
:10492000500080F31188FEE7064B1A687B681A6016
:10493000054B1A687B685A600C37BD465DF8047BEE
:10494000704700BF680100204C01002080B584B092
:1049500000AF786039607B68002B04D14FF05000C5
:1049600080F31188FEE73B68002B04D14FF0500024
:1049700080F31188FEE701F073FA3B681B68B3F11E
:10498000FF3F02D10023FB6029E07B681A68174BC8
:104990001B689A4208D07B685A68154B1B689A427C
:1049A00002D80123FB601AE0114B1A687B685B6830
:1049B000D21A3B681B689A420FD20D4B1A687B686B
:1049C0005B68D31A3A681268D21A3B681A60786832
:1049D000FFF79EFF0023FB6001E00123FB6001F075
:1049E00051FAFB6818461037BD4680BD68010020AB
:1049F0004C01002080B400AF034B01221A60BD4679
:104A00005DF8047B704700BF6401002080B582B070
:104A100000AF786000F080F8044B1B68012B01D9CF
:104A200001F012FAFEF794FBF4E700BF74000020D7
:104A300080B584B000AFF860B9607A603B60FB6815
:104A400034331846B9680A2202F088FAFB6800225B
:104A500083F83D207B68042B01D904237B60FB682D
:104A60007A68DA62FB687A681A64FB68043318466D
:104A700000F0D4FAFB681833184600F0CFFAFB6850
:104A8000FA681A617B68C3F10502FB689A61FB68EA
:104A9000FA685A621037BD4680BD00BF80B582B04B
:104AA00000AF00237B600CE07A6813469B00134440
:104AB0009B00114A1344184600F090FA7B680133BA
:104AC0007B607B68042BEFD90C4800F087FA0C4818
:104AD00000F084FA0B4800F081FA0B4800F07EFAEF
:104AE0000A4800F07BFA0A4B044A1A60094B044A50
:104AF0001A600837BD4680BD74000020D800002031
:104B0000EC000020080100201C01002034010020DE
:104B1000000100200401002080B582B000AF184BD6
:104B20001B68002B28D0FFF7B9FC164B1B68002B25
:104B30000CBF01230023DBB27B60FFF7BDFC7B6869
:104B4000002B19D101F08CF90E4BDB68DB683B6060
:104B50003B680433184600F0CDFA0B4B1B68013B51
:104B6000094A1360064B1B68013B054A136001F0BC
:104B700089F9386800F072F80837BD4680BD00BF7B
:104B8000300100201C0100204801002080B582B0C7
:104B900000AF7860134B1B687A685A60124B1B6831
:104BA0007A689A4209D2114B1A680E4B1B6804337B
:104BB0001046194600F066FA10E00D4B1A68094BD2
:104BC0001B6804331046194600F05CFA094B1B6859
:104BD0007A689A4202D2074A7B6813600837BD465A
:104BE00080BD00BF700000204C01002004010020A7
:104BF000000100205800002080B584B000AF0346BB
:104C00003960FB80442001F0D9FFF860FB68002B7D
:104C10001FD03B68002B06D1FB889B00184601F093
:104C2000CDFF034600E03B68FA681363FB681B6B2B
:104C3000002B05D1F86801F0FDFF0023FB6008E0C0
:104C4000FB681A6BFB889B001046A5211A4602F0F0
:104C500009F9FB6818461037BD4680BD80B582B0A3
:104C600000AF78607B681B6B184601F0E3FF786843
:104C700001F0E0FF0837BD4680BD00BF80B483B0BF
:104C800000AF054B1B687B607B6818460C37BD4640
:104C90005DF8047B704700BF7000002080B584B0D1
:104CA00000AF78607B68FB607B68002B04D14FF01D
:104CB000500080F31188FEE7FB68DA6A214B1B681D
:104CC000DB6A9A423AD21F4B1B68DB6AC3F10502CA
:104CD000FB689A61FB685969FB68DA6A13469B00B6
:104CE00013449B00184A1344994222D1FB680433B1
:104CF000184600F0FFF9134B1B68DA6AFB68DA62AA
:104D0000FB68DA6A114B1B689A4203D9FB68DB6ABD
:104D10000E4A1360FB68DA6A13469B0013449B003B
:104D2000094A1A44FB6804331046194600F082F918
:104D300004E0044B1B68DA6AFB68DA621037BD4690
:104D400080BD00BF700000207400002054010020CE
:104D500080B584B000AF78607B68FB607B68002B17
:104D60002CD0FB68DA6AFB681B6C9A4226D0FB6881
:104D70000433184600F0BEF9FB681A6CFB68DA626F
:104D8000FB68DB6AC3F10502FB689A61FB68DA6ABB
:104D90000C4B1B689A4203D9FB68DB6A094A136013
:104DA000FB68DA6A13469B0013449B00064A1A44C8
:104DB000FB6804331046194600F03CF91037BD4635
:104DC00080BD00BF540100207400002080B487B073
:104DD00000AF7860396000237B6100233B610023D2
:104DE000FB6000237B6176E07B69012202FA03F31A
:104DF0003B613B681A683B691340FB60FA683B699A
:104E00009A4265D17B681A687B695B001946032367
:104E10008B40DB431A407B681A607B681A683B68EA
:104E20001B7919467B695B0001FA03F31A437B681F
:104E30001A603B681B79012B03D03B681B79022B5E
:104E40002ED17B689A687B695B00194603238B40EF
:104E5000DB431A407B689A607B689A683B685B79A1
:104E600019467B695B0001FA03F31A437B689A6079
:104E70007B685A687B699BB2194601238B40DB43F0
:104E80001A407B685A607B685B683A689279114681
:104E90007A6992B201FA02F292B21A437B685A60BE
:104EA0007B68DA687B699BB25B00032101FA03F33C
:104EB000DB431A407B68DA607B68DA683B68DB7941
:104EC00019467B695B0001FA03F31A437B68DA60D9
:104ED0007B6901337B617B690F2B85D91C37BD460C
:104EE0005DF8047B704700BF80B485B000AF786088
:104EF0000B467B800023FB737B681A697B88134019
:104F0000002B02D00123FB7301E00023FB73FB7B2A
:104F100018461437BD465DF8047B704780B483B0F3
:104F200000AF78600B467B8013467B707B78002B4C
:104F300003D07B687A881A8302E07B687A885A8378
:104F40000C37BD465DF8047B704700BF80B485B068
:104F500000AF78600B467B8013467B700023FB60BC
:104F60000023BB607B787A8802F0070292009340AE
:104F7000FB607B88DB089BB218467B88DB089BB212
:104F80001A467B68083253F822207B8803F0070317
:104F90009B0019460F238B40DB4302EA03017B6829
:104FA00000F1080243F822107B88DB089BB21A4606
:104FB0007B68083253F82220FB681343BB607B8870
:104FC000DB089BB21A467B680832B96843F82210A6
:104FD0001437BD465DF8047B704700BF80B483B0D2
:104FE00000AF78607B6803F108027B685A607B68D9
:104FF0004FF0FF329A607B6803F108027B68DA6049
:105000007B6803F108027B681A617B6800221A60E2
:105010000C37BD465DF8047B704700BF80B483B099
:1050200000AF78607B6800221A610C37BD465DF8DE
:10503000047B704780B485B000AF786039607B68CE
:105040005B68FB60FB685A683B685A607B685A681B
:105050003B689A60FB685B683A689A60FB683A68EC
:105060005A607B683A685A603B687A681A617B6864
:105070001B685A1C7B681A601437BD465DF8047BB8
:10508000704700BF80B485B000AF786039603B687E
:105090001B68BB60BB68B3F1FF3F03D17B681B6932
:1050A000FB600CE07B680833FB6002E0FB685B6838
:1050B000FB60FB685B681A68BB689A42F6D9FB68BC
:1050C0005A683B685A603B685B683A689A603B681C
:1050D000FA689A60FB683A685A603B687A681A61B5
:1050E0007B681B685A1C7B681A601437BD465DF8E4
:1050F000047B704780B485B000AF78607B685B68E4
:105100007A6892689A607B689B687A6852685A608D
:105110007B681B69FB60FB685A687B689A4203D115
:105120007B689A68FB685A607B6800221A61FB689A
:105130001B685A1EFB681A601437BD465DF8047B75
:10514000704700BF80B500AF114A114B1B6843F098
:10515000010313600E4B00229A600D4A0C4B1B6832
:1051600023F0847323F480331360094B094A5A6097
:10517000074A074B1B6823F480231360044B00226B
:10518000DA6000F00BF8044B4FF000629A6080BDCB
:10519000003802401030002400ED00E080B483B0FD
:1051A00000AF00237B6000233B602F4A2E4B1B681F
:1051B00043F4803313602C4B1B6803F400333B60D3
:1051C0007B6801337B603B68002B03D17B68B3F5C0
:1051D000A06FF0D1244B1B6803F40033002B02D0E6
:1051E00001233B6001E000233B603B68012B36D18B
:1051F0001D4A1D4B9B6893601B4A1B4B9B6843F4E5
:1052000000439360184A184B9B6843F4A053936083
:10521000154B164A5A60144A134B1B6843F08073AF
:10522000136000BF104B1B6803F00073002BF9D014
:105230000F4B40F201721A600B4A0B4B9B6823F034
:1052400003039360084A084B9B6843F00203936092
:1052500000BF054B9B6803F00C03082BF9D10C37FA
:10526000BD465DF8047B70470038024004304308B7
:10527000003C024080B483B000AF78607B681B685C
:1052800023F001027B681A607B6800221A607B6849
:1052900000225A607B6800229A607B680022DA60F4
:1052A0007B6800221A617B6821225A617B68454A2B
:1052B000934203D1444B3D229A607EE07B68434A8F
:1052C000934204D1404B4FF474629A6075E07B685E
:1052D0003F4A934204D13C4B4FF474129A606CE005
:1052E0007B683C4A934204D1374B4FF074629A601A
:1052F00063E07B68384A934203D1334B374ADA6024
:105300005BE07B68364A934203D12F4B354ADA6023
:1053100053E07B68344A934203D12B4B334ADA6023
:105320004BE07B68324A934204D1274B4FF03D5209
:10533000DA6042E07B682F4A934203D12E4B3D2234
:105340009A603AE07B682D4A934204D12A4B4FF48D
:1053500074629A6031E07B68294A934204D1264BFB
:105360004FF474129A6028E07B68264A934204D175
:10537000214B4FF074629A601FE07B68224A93428F
:1053800003D11D4B154ADA6017E07B681F4A934230
:1053900003D1194B134ADA600FE07B681C4A934231
:1053A00003D1154B114ADA6007E07B68194A934232
:1053B00003D1114B4FF03D52DA600C37BD465DF81A
:1053C000047B704710600240006002402860024089
:1053D0004060024058600240706002403D00002082
:1053E00088600240400F0020A060024000003D2085
:1053F000B860024010640240006402402864024029
:105400004064024058640240706402408864024074
:10541000A0640240B864024080B485B000AF7860F8
:1054200039600023FB607B681B68FB60FA68244BD3
:105430001340FB603B681A683B68DB681A433B68B3
:105440005B691A433B689B691A433B68DB691A43F3
:105450003B681B6A1A433B685B6A1A433B689B6A5A
:105460001A433B685B6B1A433B689B6B1343FA68B8
:105470001343FB607B68FA681A607B685B69FB60BA
:10548000FB6823F00703FB603B68DA6A3B681B6B31
:105490001343FA681343FB607B68FA685A613B6800
:1054A0001A697B685A603B685A687B689A603B68F7
:1054B0009A687B68DA601437BD465DF8047B7047F4
:1054C0003F801CF080B483B000AF78607B6800221E
:1054D0001A607B6800225A607B6800229A607B68B1
:1054E0000022DA607B6800221A617B6800225A6120
:1054F0007B6800229A617B680022DA617B68002267
:105500001A627B6800225A627B6800229A627B687A
:105510000022DA627B6800221A637B6800225A63E9
:105520007B6800229A630C37BD465DF8047B7047A8
:1055300080B483B000AF78600B46FB70FB78002B23
:1055400006D07B681B6843F001027B681A6005E0A7
:105550007B681B6823F001027B681A600C37BD462C
:105560005DF8047B704700BF80B487B000AF7860FF
:1055700039600023FB750023FB607B68154A93426A
:1055800002D8154B3B6101E0144B3B613B6803F0D3
:105590000053002B03D03B695B68FB6002E03B6972
:1055A0001B68FB60FB6823F0F02323F08213FB6091
:1055B000FA683B681340002B02D00123FB7501E021
:1055C0000023FB75FB7D18461C37BD465DF8047B48
:1055D000704700BF0F640240006002400064024058
:1055E00080B485B000AF786039607B68104A934220
:1055F00002D8104BFB6001E00F4BFB603B6803F0EF
:105600000053002B07D03B6823F0F02323F08213D4
:10561000FA68D36006E03B6823F0F02323F082139E
:10562000FA6893601437BD465DF8047B704700BF8D
:105630000F640240006002400064024080B582B006
:1056400000AF786039607B68002B04D14FF05000C8
:1056500080F31188FEE700F003FC7B681A687B6822
:10566000DB6B7968096C01FB03F31A447B685A60B1
:105670007B6800229A637B681A687B689A607B6803
:105680001A687B68DB6B013B7968096C01FB03F3EB
:105690001A447B68DA607B684FF0FF325A647B689B
:1056A0004FF0FF329A643B68002B0ED17B681B6978
:1056B000002B14D07B6810331846FFF7D1F803464F
:1056C000012B0CD100F0C0FB09E07B6810331846B9
:1056D000FFF784FC7B6824331846FFF77FFC00F05B
:1056E000D1FB012318460837BD4680BD80B588B080
:1056F00000AFF860B9601346FB710023FB61FB68E3
:10570000002B26D04C2001F059FAB861BB69002B60
:105710001FD0FB68BA6802FB03F301337B61786931
:1057200001F04CFA0246BB691A60BB691B68002B8A
:105730000CD0BB69FA68DA63BB69BA681A64B869E5
:105740000121FFF77BFFBB69FB6102E0B86901F053
:1057500071FAFB69002B04D14FF0500080F31188DF
:10576000FEE7FB6918462037BD4680BD80B584B092
:1057700000AF0346FB714C2001F020FAF860FB6893
:10578000002B2CD0FB6800225A60FB6800221A60B4
:10579000FB6800229A60FB680022DA60FB68002246
:1057A0009A63FB680122DA63FB6800221A64FB68D3
:1057B0004FF0FF325A64FB684FF0FF329A64FB6887
:1057C00010331846FFF70AFCFB6824331846FFF72E
:1057D00005FCF86800210022002300F00DF8FB68AA
:1057E000002B04D14FF0500080F31188FEE7FB68D6
:1057F00018461037BD4680BD80B588B000AFF86050
:10580000B9607A603B600023FB61FB68002B04D128
:105810004FF0500080F31188FEE7BB68002B03D1E6
:10582000FB681B6C002B01D1012300E00023002B3F
:1058300004D14FF0500080F31188FEE700F010FB18
:10584000FB689A6BFB68DB6B9A4216D2F868B96802
:105850003A6800F09DF9FB685B6A002B09D0FB6891
:1058600024331846FEF7FCFF0346012B01D100F05C
:10587000EBFA00F007FB012359E07B68002B03D112
:1058800000F000FB002352E0FB69002B06D107F17A
:1058900014031846FFF73CF80123FB6100F0F2FA0D
:1058A000FEF7FCFD00F0DCFAFB685B6CB3F1FF3F38
:1058B00002D1FB6800225A64FB689B6CB3F1FF3F86
:1058C00002D1FB6800229A6400F0DCFA07F11402AE
:1058D0003B1D10461946FFF739F80346002B1ED131
:1058E000F86800F039FA0346002B12D0FB6803F188
:1058F00010027B6810461946FEF77AFFF86800F040
:10590000C9F9FEF7D9FD0346002B0FD100F09CFA30
:105910000CE0F86800F0BEF9FEF7CEFD8EE7F868FF
:1059200000F0B8F9FEF7C8FD002300E086E718464E
:105930002037BD4680BD00BF80B586B000AFF8609F
:10594000B9607A603B60FB68002B04D14FF05000D7
:1059500080F31188FEE7BB68002B03D1FB681B6C4A
:10596000002B01D1012300E00023002B04D14FF0D4
:10597000500080F31188FEE700233B614FF0500098
:1059800080F31188FB689A6BFB68DB6B9A4224D228
:10599000F868B9683A6800F0FBF8FB689B6CB3F1F3
:1059A000FF3F12D1FB685B6A002B13D0FB682433E6
:1059B0001846FEF755FF0346002B0BD07B68002BE3
:1059C00008D07B6801221A6004E0FB689B6C5A1CBB
:1059D000FB689A6401237B6101E000237B614FF047
:1059E000000080F311887B6918461837BD4680BDDA
:1059F00080B588B000AFF860B9607A603B60002382
:105A0000FB61FB68002B04D14FF0500080F311883C
:105A1000FEE7BB68002B03D1FB681B6C002B01D198
:105A2000012300E00023002B04D14FF0500080F34D
:105A30001188FEE700F014FAFB689B6B002B3BD04B
:105A4000FB68DB68BB61F868B96800F0FDF83B688B
:105A5000002B1CD1FB689B6B5A1EFB689A63FB688A
:105A60001B68002B04D1FFF709F90246FB685A6056
:105A7000FB681B69002B1BD0FB6810331846FEF730
:105A8000EFFE0346012B13D100F0DEF910E0FB68B6
:105A9000BA69DA60FB685B6A002B09D0FB682433C3
:105AA0001846FEF7DDFE0346002B01D000F0CCF9CE
:105AB00000F0E8F9012366E07B68002B03D100F0D9
:105AC000E1F900235FE0FB69002B06D107F1100329
:105AD0001846FEF71DFF0123FB6100F0D3F9FEF726
